:03000000020109F1
:0C010900787FE4F6D8FD75811002000339
:10008800556172742052656164792100476976650B
:10009800206D65204D6F6F645B0053686F77204D4E
:0500A8006F6F642100F0
:100003001200DF7BFF7A0079881200AD7F0D1201A9
:10001300157F0A120115E4F5087BFF7A0079941223
:1000230000ADE5082430FF1201157F5D1201157F35
:100033000D1201157F0A12011512012074092508FA
:10004300F8A6070508E508C3940840CD7BFF7A00AE
:1000530079A21200ADE4F50875A0FF74092508F82C
:10006300E6F580AF087401A807088002C333D8FC03
:10007300F4F5A07F647E001200F60508E508C3943A
:050083000840D580D00B
:1000F600E4FDFCC3ED9FEC9E5008000DBD00010C15
:0201060080F186
:0101080022D4
:1000DF00E589540F4420F589758BFD758DFDE4F589
:0700EF0087759858D28E229C
:1000AD001200C66013F5992099030080FAC2997465
:0900BD000129F9E43AFA80E82275
:0B0115008F992099030080FAC2992204
:0A0120002098030080FAAF99C298FE
:01012A0022B2
:1000C600BB010689828A83E0225002E722BBFE0238
:0900D600E32289828A83E493226B
:00000001FF
