:030000000218C61D
:0C18C600787FE4F6D8FD75815702127798
:100003000000000000000000005F0000000000008E
:100013000007000700000000147F147F1400000095
:10002300242A7F2A120000002313086462000000C0
:10003300364955225000000000050300000000006F
:100043001C2241000000000041221C0000000000AF
:10005300082A1C2A0800000008083E0808000000BF
:10006300A060000000000000080808080800000065
:10007300606000000000000020100804020000007F
:100083003E5149453E00000000427F400000000011
:1000930062514949460000002241494936000000A7
:1000A3001814127F10000000274545453900000051
:1000B3003C4A494930000000017109050300000072
:1000C3003649494936000000064949291E00000007
:1000D300003636000000000000AC6C000000000099
:1000E300081422410000000014141414140000002A
:1000F300412214080000000002015109060000001B
:10010300324979413E0000007E0909097E00000062
:100113007F494949360000003E4141412200000029
:100123007F4141221C0000007F49494941000000F2
:100133007F090909010000003E414151720000009E
:100143007F0808087F000000417F41000000000095
:100153002040413F010000007F08142241000000BD
:100163007F404040400000007F020C027F000000FF
:100173007F0408107F0000003E4141413E00000023
:100183007F090909060000003E4151215E0000007D
:100193007F09192946000000264949493200000019
:1001A30001017F01010000003F4040403F0000008B
:1001B3001F2040201F0000003F4038403F00000048
:1001C30063140814630000000304780403000000B0
:1001D30061514945430000007F4141000000000098
:1001E300020408102000000041417F0000000000CD
:1001F300040201020400000080808080800000006F
:100203000102040000000000205454547800000050
:100213007F4844443800000038444428000000006C
:10022300384444487F0000003854545418000000F8
:10023300087E09020000000018A4A4A47C000000AA
:100243007F08040478000000007D00000000000027
:1002530080847D00000000007F102844000000001F
:10026300417F4000000000007C0418047800000077
:100273007C08047C0000000038444438000000007F
:10028300FC24241800000000182424FC00000000B3
:10029300007C0804000000004854542400000000BF
:1002A300047F4400000000003C40407C000000004C
:1002B3001C2040201C0000003C4030403C0000005B
:1002C30044281028440000001CA0A07C000000006B
:1002D3004464544C44000000083641000000000010
:1002E300007F00000000000041360800000000000D
:1002F3000201010201000000003636000041221C09
:10030300003636000041221C0404444040440404E7
:1003130004024440404402040402244040240204F2
:100323000A0E4A40404A0E0A0A0A4A40404A0A0A4A
:1003330004FC44404044FC040204424040420402A2
:100343000A044A40404A040A000440404040040072
:10035300000400400000040000044040404004004A
:1003630002064240404206020E0A4E44444E0A0E22
:10037300000460A0A0600400040464A0A06404045A
:10038300040264A0A0640204020602400002060202
:100393003C4281818181423C3C4299A5B5854932E9
:1003A3000040E0E07F020404000C12224422120CFD
:1003B3003C42A1918985423C814224181824428100
:1003C3003E2A2A1480B8A0787C547C807F1595FF40
:1003D3003C4281BFA3BF423C3C4281A5BFA1423CFA
:1003E3003C4281BBABAF423C3C4281ABABBF423CE6
:1003F3003C42818F89BF423C3C4281AFABBB423C14
:100403003C4281BFABBB423C3C42818383BF423C05
:100413003C4281BFABBF423C3C4281AFABBF423C9D
:1004230000000000000000000000000000000200C7
:1004330000000000000102000000000001010200B2
:10044300000000010101020000000101010102009E
:100453000002010101010200040201010101020085
:100463000C020101010102001C0201010101020051
:100473003C020101010102003C42010101010200B1
:100483003C428101010102003C42818101010200E1
:100493003C428181810102003C42818181810200D1
:1004A3003C428181818142003C42818181814220A1
:1004B3003C428181818142303C4281818181423849
:1004C3003C4281818181423C000000000000000029
:1004D3000000000000000002000000000000010214
:1004E3000000000000010102000000000101010200
:1004F30000000001010101020000010101010102EC
:1005030000020101010101020402010101010102D2
:100513000C020101010101021C020101010101029E
:100523003C020101010101023C42010101010102FE
:100533003C428101010101023C428181010101022E
:100543003C428181810101023C428181818101021E
:100553003C428181818141023C42818181814122EE
:100563003C428181818141323C4281818181493296
:100573003C428181818549323C4281818585493272
:100583003C428185858549323C428985858549324E
:100593003C429985858549323C4299A585854932F6
:1005A3003C4299A5A58549323C4299A5B585493276
:1005B30000000000000000000000400000000000F8
:1005C3000000404000000000000040600000000008
:1005D3000000606000000000004060600000000058
:1005E3000040E060000000000040E0E00000000088
:1005F3000040E0E0400000000040E0E06000000058
:100603000040E0E0700000000040E0E078000000FF
:100613000040E0E07C0000000040E0E07E000000DD
:100623000040E0E07F0000000040E0E07F020000C7
:100633000040E0E07F0204000040E0E07F020404A9
:1006430000000000000000000000000004000000A3
:100653000000000204000000000002020400000089
:100663000004020204000000000C02020400000067
:10067300000C120204000000000C1222040000000F
:10068300000C122244000000000C1222442000003F
:10069300000C122244201000000C122244201008E7
:1006A300000C12224420100C000C12224420120CC5
:1006B300000C12224422120C000000000001000072
:1006C3000000000001010000000000010101000022
:1006D300000001010101000000020101010100000D
:1006E30004020101010100000C02010101010000EB
:1006F3001C020101010100003C0201010101000093
:100703003C420101010100003C4281010101000062
:100713003C428181010100003C4281818101000052
:100723003C428181818100003C4281818181400082
:100733003C428181818140203C42818181814030E2
:100743003C428181818140383C4281818181403CAE
:100753003C4281818181423C3C4281818185423C92
:100763003C4281818985423C3C4281918985423C5E
:100773003C42A1918985423C010000000000000039
:10078300010200000000000001020400000000005C
:100793000102040800000000010204081000000028
:1007A3000102040810200000010204081020400088
:1007B3000102040810204080010204081020408137
:1007C300010204081020428101020408102442811E
:1007D30001020408182442810102041818244281EA
:1007E300010224181824428101422418182442814A
:1007F30081422418182442813C4281818183423CF6
:100803003C4281818383423C3C4281838383423CDB
:100813003C4281878383423C3C42818F8383423CB9
:100823003C42819F8383423C3C4281BF8383423C61
:100833003C4281BFA383423C3C4281BFA3A3423CD1
:100843003C4281BFA3B3423C3C4281BFA3BB423C79
:100853003C4281BFA3BF423C3C4281858181423CF3
:100863003C4281858381423C3C4281858781423C75
:100873003C4281858F81423C3C4281859F81423C41
:100883003C4281A59F81423C3C4281A5BF81423CC1
:100893003C4281A5BFA1423C3C4281838181423CD1
:1008A3003C4281838381423C3C4281838383423C3B
:1008B3003C4281838387423C3C428183838F423C19
:1008C3003C4281838B8F423C3C42818B8B8F423CE9
:1008D3003C42819B8B8F423C3C4281BB8B8F423C91
:1008E3003C4281BBAB8F423C3C4281BBABAF423C01
:1008F3003C4281838181423C3C4281838381423CEF
:100903003C4281838383423C3C4281838387423CD4
:100913003C428183838F423C3C4281838B8F423CA8
:100923003C42818B8B8F423C3C42818B8B9F423C70
:100933003C42818B8BBF423C3C42818BABBF423CF0
:100943003C4281ABABBF423C3C4281838181423C10
:100953003C4281878181423C3C42818F8181423C80
:100963003C42818F8981423C3C42818F8983423C56
:100973003C42818F8987423C3C42818F898F423C34
:100983003C42818F899F423C3C42818F89BF423CDC
:100993003C4281818183423C3C4281818383423C4E
:1009A3003C4281838383423C3C4281878383423C34
:1009B3003C42818F8383423C3C42818F8B83423C08
:1009C3003C42818F8B8B423C3C42818F8B9B423CD0
:1009D3003C42818F8BBB423C3C42818FABBB423C50
:1009E3003C4281AFABBB423C3C4281818183423C70
:1009F3003C4281818383423C3C4281838383423CEA
:100A03003C4281878383423C3C42818F8383423CC7
:100A13003C42819F8383423C3C4281BF8383423C6F
:100A23003C4281BFA383423C3C4281BFA3A3423CDF
:100A33003C4281BFA3B3423C3C4281BFA3BB423C87
:100A43003C4281BFABBB423C3C4281838181423CFF
:100A53003C4281838381423C3C4281838383423C89
:100A63003C4281838387423C3C428183838F423C67
:100A73003C428183839F423C3C42818383BF423C0F
:100A83003C4281838181423C3C4281838381423C5D
:100A93003C4281838383423C3C4281838387423C43
:100AA3003C428183838F423C3C428183839F423C0F
:100AB3003C42818383BF423C3C428183A3BF423C8F
:100AC3003C4281A3A3BF423C3C4281B3A3BF423C0F
:100AD3003C4281BBA3BF423C3C4281BFA3BF423CDB
:100AE3003C4281BFABBF423C3C4281818981423C55
:100AF3003C4281898981423C3C42818D8981423CCF
:100B03003C42818F8981423C3C42818F8B81423CB4
:100B13003C42818F8B83423C3C42818F8B87423C9A
:100B23003C42818F8B8F423C3C42818F8B9F423C66
:100B33003C42818F8BBF423C3C42818FABBF423CE6
:100B43003C4281AFABBF423C070305081020400085
:100B5300000E060A1020408007011D0474101000C7
:100B6300000E023A08E82020004020100805030781
:100B7300804020100A060E0000101074041D0107A7
:100B83002020E8083A020E00E0C0A010080402008A
:100B93000070605008040201E080B8202E080800AD
:100BA3000070405C101704040002040810A0C0E0A9
:100BB30001020408506070000008082E20B880E08D
:100BC300040417105C4070000004027F020400005C
:100BD300000804FE04080000002040FE402000003E
:100BE3000010207F2010000000080808082A1C08B5
:100BF300080808082A1C0800081C2A080808080016
:100C030000081C2A0808080870707020E020E080A3
:100C1300E0E0E040E010F080000020D73FD7200064
:100C2300000020DE3EDE2000001057BF57100000FA
:100C33000040AEFEAE4000000020D73F57A00000AA
:100C43000000A0573FD720000408905C3A09102009
:100C5300838448381C1221C1404748381C12E202E1
:100C63000810109E79080810810000000000008120
:100C730000420000000042000000240000240000A5
:100C83000000001818000000000020D73FD7200004
:100C9300000010D73FD71000000008D73FD7080047
:100CA300000010D73FD71000000020D73FD7200007
:100CB300000010D73FD72000000008D73FD72000FF
:100CC300000010D73FD72000001057BF5710000077
:100CD300000017FF17000000000007FF07000000D7
:100CE300000017FF170000000000000000000000D4
:100CF300000004040400000000000404041C0000BD
:100D030000000424243C000000003C24243C000098
:100D1300003C424242423C0000003C24243C000090
:100D2300E781BD2424BD81E700667E24247E66001E
:100D33000000241818240000000000181800000008
:100D430000000000000000000000A0573FD7200073
:100D53000000A0573FD708000000A0573FD720004E
:100D63000020D73F57A000000008D73F57A000003E
:100D73000020D73F57A000000020D73FD720000016
:100D83000020D73FD71000000020D73FD71800001E
:100D93000020D73FD71400000020D73FD71800000A
:100DA3000020D73FD71000000020D73FD7200000F6
:100DB3000020D73FD72002020020D73FD7220200CE
:100DC3000727D73AD22000000722D238D0200000CC
:100DD3000020D038D0200000003636000041221C0D
:080DE300226A280FE00A7A429F
:101277007FE87E031218B3758921758840121560BF
:10128700E508700512173980F7E508B4010512184B
:101297008680EDE508B4020512177280E3E508B40D
:1012A70003051217A380D9E508B404051217D480E3
:1012B700CFE508B405051211A880C5E508B40605F1
:1012C700120F8180BBE508B407051216F680B1E559
:1012D70008B408051215B780A7E508B40905121662
:1012E70009809DE508B40A0512185B8093E508B4E8
:1012F7000B051215088089E508B40C0612143A028A
:101307001287E508B40D061214A1021287E508B486
:101317000E06120DEB021287E508640F6003021236
:071327008712182F02128744
:101560007BFF7A0D79DB754D01E4F54E754F017502
:101570005010F5517D0112133D8F46E546B401022E
:10158000802FE54664027029E58B540FF508D3944B
:1015900009E50840062417F54780042410F547E4C0
:1015A000F546E5471216AA0546E546C394C840F23B
:0615B000221218D28F0880
:0115B6002212
:10173900E4F54675475FE546702220B00EE547B4EB
:101749005F05E4F54780120547800E20B10EE54795
:10175900700575475F8002154775463FE5471216C4
:09176900AAE54660D1154680CDC9
:10188600E4F54675475FE546701230B00320B10CAB
:10189600E58B75F0608485F04775463FE54712167F
:0918A600AAE54660E1154680DD6B
:10177200E4F546F547E546701230B00320B10CE5BA
:101782008B75F00A8485F04775463FE54775F0088A
:10179200A424D3F974031216B3E54660D815468023
:0117A200D472
:1017A300E4F546F547E546701230B00320B10CE589
:1017B3008B75F0128485F04775463FE54775F00851
:1017C300A42403F974031216B3E54660D8154680C2
:0117D300D441
:1017D400E4F546F547E546700F30B00320B109E55E
:1017E4008B5407F54775463FE54775F008A42493E5
:0E17F400F974031216B3E54660DB154680D784
:1011A800E4F546E54670177BFF7A047923754D010F
:1011B800F54EF54F755008F5517D15021250E5466C
:1011C800B401177BFF7A0479CB754D01E4F54EF530
:1011D8004F755008F5517D1D806EE546B402177BAA
:1011E800FF7A0579B3754D01E4F54EF54F75500852
:1011F800F5517D128052E546B403177BFF7A0679D4
:1012080043754D01E4F54EF54F755008F5517D0FC6
:101218008036E546B404177BFF7A0679BB754D0125
:10122800E4F54EF54F755008F5517D18801AE546DE
:10123800B4051A7BFF7A07797B754D01E4F54EF505
:101248004F755008F5517D1012133D8F47E547B48F
:101258000116E546B40505E4F546800205467FE833
:0F1268007E031218B30211ABE54764020211AB0B
:100F8100E4F546F548E546700C7BFF7A0779FB7579
:100F91004D0102103FE546B4011A7BFF7A08795BE7
:100FA100754D01E4F54E754F017550088548517D29
:100FB100080210A6E546B4021A7BFF7A08799B75F0
:100FC1004D01E4F54E754F017550088548517D0B73
:100FD1000210A6E546B4031A7BFF7A0879F3754D32
:100FE10001E4F54E754F017550088548517D0B029E
:100FF10010A6E546B4041A7BFF7A09794B754D01B9
:10100100E4F54E754F017550088548517D09021070
:10101100A6E546B405197BFF7A097993754D01E47C
:10102100F54E754F017550088548517D0B8076E569
:1010310046B406197BFF7A0979EB754D01E4F54E4B
:10104100754F017550088548517D0C8058E546B4AF
:1010510007197BFF7A0A794B754D01E4F54E754FFF
:10106100017550088548517D07803AE546B4081955
:101071007BFF7A0A7983754D01E4F54E754F017551
:1010810050088548517D0D801CE546B4091C7BFF45
:101091007A0A79EB754D01E4F54E754F01755008EB
:1010A1008548517D0C12133D8F47E547B40105E496
:1010B100F5488008E547B4020D7548207FE87E03B6
:1010C1001218B3020F86E546B40906E4F546020F8D
:0610D100860546020F86B1
:1016F600E4F546E54675F010A4244BF9740B35F075
:10170600FA7BFF12132E8F47E547B40111E546B465
:101716000F05E4F546800205461218AF80D5E54769
:10172600B402D0E546700575460F800215461218BC
:03173600AF80C0C1
:1015B700E4F546E54675F020A4244BF9740C35F0A4
:1015C700FA7BFFE4F54DF54E754F01755010F55157
:1015D7007D0412133D8F47E547B40111E546B40476
:1015E70005E4F546800205461218AF80C6E547B404
:1015F70002C1E5467005754604800215461218AF0C
:0216070080B1B0
:10160900E4F546E54675F030A424EBF9740C35F0A1
:10161900FA7BFFE4F54DF54E754F01755010F55104
:101629007D0612133D8F47E547B40111E546B40421
:1016390005E4F546800205461218AF80C6E547B4B1
:1016490002C1E5467005754604800215461218AFB9
:0216590080B15E
:10185B007F08780DE4F608DFFC7F081210D712180A
:10186B00AF30B00320B1091218AF1210D71218AF56
:0B187B007B007A00790D1216B880E6A1
:10150800E4F546E5462411F548E4F547E5481216A2
:10151800AA0547E547C394C840F27F08780DE4F66A
:1015280008DFFC1210D7E4FF740D2FF8E6FEE5463D
:1015380075F008A424152FF8A6060FBF08EA05467B
:10154800E546C3940240BC1218AF7B007A007915B7
:0815580012132EBF02F480A85B
:10143A00E4F546E5462411F548E4F547E548121671
:10144A00AA0547E547C394C840F27F08780DE4F639
:10145A0008DFFC1210D7E4FF740D2FF8E6FEE5460C
:10146A0075F008A424152FF8A6060FBF08EA05464A
:10147A00E546C3940440BC1218AF7B007A00791584
:10148A00E4F54DF54E754F01755010F5517D041276
:07149A00133DBF02E580993C
:1014A100E4F546E5462411F548E4F547E54812160A
:1014B100AA0547E547C394C840F27F08780DE4F6D2
:1014C10008DFFC1210D7E4FF740D2FF8E6FEE546A5
:1014D10075F008A424152FF8A6060FBF08EA0546E3
:1014E100E546C3940640BC1218AF7B007A0079151B
:1014F100E4F54DF54E754F01755010F5517D06120D
:07150100133DBF02E58099D4
:100DEB00E4F54AF54BF54DF546E546900DE393FFDB
:100DFB00740D2546F8A6070546E546B408EBE4F561
:100E0B0048F549740D2548F8E6F54CE54A600302B0
:100E1B000F25740D2548F8A64C30B003020EF6AB27
:100E2B004BAD49AF481213C8E5457053FBAD49AF05
:100E3B00481213C8E5457016F5467BFF7A01791306
:100E4B001216B80546E546C3948040EE8060E58BEC
:100E5B008545F08485F04774092547F8E6FFB40112
:100E6B000405488016EFB402040549800EEFB40365
:100E7B000415488006EFB4040215498F4B802FE50B
:100E8B008B8545F08485F04774092547F8E6FFB458
:100E9B00010405488016EFB402040549800EEFB437
:100EAB00030415488006EFB4040215498F4BE5483F
:100EBB00B4071AE549B40715E4F5467BFF7A0379C5
:100ECB00131216B80546E546C394FA40EEE5487092
:100EDB003EE549703AF5467BFF7A03790B1216B85B
:100EEB000546E546C394FA40EE802420B12412183F
:100EFB00AF1210D7740D2548F8C000E6FFAE497449
:100F0B0001A806088002C333D8FCF45FD000F67545
:100F1B004A3F740D2548F8E6F54CE54DC394205037
:100F2B0019740D2548F8C000E6FFAE497401A806F8
:100F3B00088002C333D8FC4F8018740D2548F8C0C5
:100F4B0000E6FFAE497401A806088002C333D8FC43
:100F5B00F45FD000F6054DE54DC394404003E4F536
:100F6B004D7B007A00790D1216B8E54A7003020E1C
:060F7B0016154A020E16D5
:10182F00E4F5467BFF7A0379C31216B80546E54601
:10183F00C3948040EEE4F546E546C3948050E17BC7
:0C184F00FF7A0379CB1216B8054680EC36
:0718D200AFB0EFC4540FFF9B
:0118D90022EC
:0F132E00E4F54DF54E754F01755010F5517D02E8
:08133D008B498A4A894B8D4C53
:10134500E4F552E552C3954C5039E4F553E553C3E2
:101355009550502BE55275F008A4AB49254BF9E59E
:101365004A35F0FA1216B820B007E54F60037F0141
:101375002220B107E54F60037F0222055380CE0589
:101385005280C0E54D60B9E54E60037F0022E54C13
:1013950014F552E55275F008A4AB49254BF9E54A19
:1013A50035F0FA1216B820B0037F012220B1037F71
:1013B5000222E54E700AE551D3940040D6D551D3AB
:0213C5007F00A7
:0113C7002203
:0E16AA0075F008A42403F9740035F0FA7BFFF4
:0616B8008B548A5589568F
:1016BE00E4F55775A0FFAB54AA55A9568557827508
:1016CE008300121802F580AF577401A80708800234
:1016DE00C333D8FCF4F5A07F647E001218B305570F
:0716EE00E557C3940840CC4E
:0116F50022D2
:1010D700E4F54EF54FF551F553850D52E55170671F
:1010E70020B01B740D254EF8A652E54FB4010BE452
:1010F700F54F054EE54EB4080322054F803B20B15E
:1011070046740D254EF8A6521218D2E54FB4010ABF
:10111700EFC454F0FF75500F80037550F0740D2520
:101127004EF8E655504FF6E54FB4010BE4F54F0581
:101137004EE54EB4080322054F740D254EF8E6F52B
:101147005275513FE4F553E553C39420501AE54FC8
:10115700700B740D254EF8E6440FF68023740D25A9
:101167004EF8E644F0F68018E54F700B740D254EE7
:10117700F8E654F0F68009740D254EF8E6540FF69C
:101187000553E553C394404003E4F5537B007A00CD
:10119700790D1216B8E55170030210E315510210CC
:0111A700E364
:0418AF007F307E7593
:1018B300E4FDFCC3ED9FEC9E5008000DBD00010C40
:0218C30080F1B2
:0118C5002200
:10165B00C3EF648094804008D3EF64809487400389
:10166B007F0022C3ED648094804008D3ED648094A6
:10167B008740037F0022740D2FF8E6FB7A00AF053D
:10168B0074017E00A807088005C333CE33CED8F98A
:0F169B00FFEE5AFEEF5B4E60037F00227F0122BD
:1013C8008F4EAC03A905E4F545E54E04FF12165B04
:1013D800EF600FEC6403600AAF45054574092FF808
:1013E8007601E904FDAF4E12165BEF600FEC640462
:1013F800600AAF45054574092FF87602E54E14FFDB
:10140800AD0112165BEF600FEC6401600AAF450591
:101418004574092FF87603E914FDAF4E12165BEFF9
:10142800600FEC6402600AAF45054574092FF87631
:0214380004228C
:10180200BB010CE58229F582E5833AF583E022509B
:1018120006E92582F8E622BBFE06E92582F8E222E5
:0D182200E58229F582E5833AF583E49322FF
:00000001FF
